:040000004DEF00F0D0
:100008005082FACF02F0FBCF03F0E9CF04F0EACF39
:1000180005F0E1CF06F0E2CF07F0D9CF08F0DACF4C
:1000280009F0F3CF0AF0F4CF0BF0F6CF0CF0F7CFCE
:100038000DF0F8CF0EF0F5CF0FF0F2BC9DAC05D067
:100048009EAC03D0B5EC09F006D0F2BC9DA203D05B
:100058009EB233EC09F00FC0F5FF0EC0F8FF0DC0DB
:10006800F7FF0CC0F6FF0BC0F4FF0AC0F3FF09C08E
:10007800DAFF08C0D9FF07C0E2FF06C0E1FF05C0EC
:10008800EAFF04C0E9FF03C0FBFF02C0FAFF509279
:1000980011006BEF08F07EC0AAF07FC0ABF0000142
:1000A800B451D8A405D08DC07EF08EC07FF0120068
:1000B800AAC01EF0ABC01FF08AEC08F01EC060F0AA
:1000C8001FC061F020C062F0BEEC08F060C063F0B1
:1000D80061C064F062C065F09AC066F09BC067F0CA
:1000E8009CC068F09EEC01F063C088F064C089F0A1
:1000F80065C08AF0A0C063F0A1C064F0A2C065F03A
:1001080088C034F089C035F08AC036F094C031F028
:1001180095C032F096C033F0FCEC04F031C066F0C4
:1001280032C067F033C068F09EEC01F063C0A0F005
:1001380064C0A1F065C0A2F08FC01EF090C01FF08F
:100148008AEC08F01EC022F01FC023F020C024F063
:10015800A0C025F0A1C026F0A2C027F0BCEC07F093
:10016800D8B007D08FC01EF090C01FF08AEC08F0FE
:100178001CD0A0C022F0A1C023F0A2C024F08DC0E2
:100188001EF08EC01FF08AEC08F01EC025F01FC0BC
:1001980026F020C027F0BCEC07F0D8B00CD08DC0FA
:1001A8001EF08EC01FF08AEC08F01EC0A0F01FC021
:1001B800A1F020C0A2F0AAC01EF0ABC01FF08AECCC
:1001C80008F01EC063F01FC064F020C065F09DC039
:1001D80060F09EC061F09FC062F0BEEC08F060C0A5
:1001E80066F061C067F062C068F09EEC01F063C021
:1001F80082F064C083F065C084F082C034F083C0AC
:1002080035F084C036F097C031F098C032F099C00C
:1002180033F0FCEC04F031C060F032C061F033C060
:1002280062F0BEEC08F060C066F061C067F062C0C2
:1002380068F088C034F089C035F08AC036F091C0C3
:1002480031F092C032F093C033F0FCEC04F031C0CE
:1002580063F032C064F033C065F09EEC01F063C017
:1002680085F064C086F065C087F0A0C066F0A1C0C4
:1002780067F0A2C068F085C063F086C064F087C0EC
:1002880065F09EEC01F063C06FF064C070F065C06B
:1002980071F0D2EC02F06FC0A8F070C0A9F00001B4
:1002A800A85100018F5D00019051800A0001806F04
:1002B8000001A951800A00018059D8B005D08FC02B
:1002C800A8F090C0A9F014D000018D510001A85DDC
:1002D8000001A951800A0001806F00018E51800A37
:1002E80000018059D8B004D08DC0A8F08EC0A9F004
:1002F800AAC01EF0ABC01FF08AEC08F01EC09DF02B
:100308001FC09EF020C09FF0A8C080F0A9C081F057
:100318000001801F811F804B812B00018F5100013C
:10032800802500017E6F00019051000181210001AC
:100338007F6F120065C069F000016A6B6B6B00018A
:1003480064350001693701E36A81000169510001E0
:100358006E6F68C069F000016A6B6B6B00016735EE
:100368000001693701E36A810001695100016D6F7D
:1003780000016E510001D8B411D000016D51000187
:100388006E5DD8B012D000016E51000800016D25D5
:100398000001696F180E0001696507D066C063F037
:1003A80067C064F068C065F0120000016D5100017B
:1003B800D8B411D000016E5100016D5DD8B012D0D3
:1003C80000016D51000800016E250001696F180ECB
:1003D8000001696507D063C063F064C064F065C05C
:1003E80065F01200060E00016C6F000165AF02D0C7
:1003F80000016C8F000168AF02D000016C8D000114
:10040800648FFF0E00016317FF0E00016417000ED2
:10041800000165170001678FFF0E00016617FF0EC8
:1004280000016717000E0001681700016D510001F7
:100438006E5DD8B025D00001D89066376737683729
:1004480000016D0700016E5100016D19D8B411D07B
:1004580000016C076CC069F0070E00016917D8B479
:1004680008D0E9D70001D8906533643363330001BD
:100478006E2B00016D5100016E19D8B42BD0F2D744
:1004880000016E5100016D5DD8B024D00001D890F4
:1004980063376437653700016E0700016E5100014C
:1004A8006D19D8B411D000016C076CC069F0070E43
:1004B80000016917D8B408D0E9D70001D89068338B
:1004C8006733663300016D2B00016D5100016E1911
:1004D800D8A4F3D700016CAF12D0FF0E0001631B44
:1004E800FF0E0001641BFF0E0001651B010E0001D9
:1004F8006327000E00016423000E0001652300013C
:100508006CAD12D0FF0E0001661BFF0E0001671BC9
:10051800FF0E0001681B010E00016627000E000196
:100528006723000E00016823000E00016C6F0001B4
:10053800635100016627000164510001672300012F
:10054800655100016823000168AF15D0FF0E000156
:10055800661BFF0E0001671BFF0E0001681B010EE2
:1005680000016627000E00016723000E00016823C2
:10057800010E00016C6F66C010F067C011F068C012
:1005880012F06EC013F06CC014F017EC07F010C036
:1005980063F011C064F012C065F0120071C073F00E
:1005A8000001746B756B000170350001733701E34E
:1005B80074810001735100017D6F00017D51D8A441
:1005C8000AD0000E00016F6F000E706F000E716F81
:1005D800000E726F1200170E0001736F6FC074F077
:1005E80070C075F071C076F0000173290001776F53
:1005F80005D00001D8907633753374330001772F16
:10060800F8D7000174510001786F0001708FFF0E58
:1006180000016F17FF0E00017017000E000171171F
:1006280000016F510001796F0001705100017A6F6C
:100638000001715100017B6F00017C6B8E0E00017F
:100648007D5F00017DAF1AD000017D51800A8F0FB8
:10065800D8B00AD0000E00016F6F000E706F000E48
:10066800716F000E726F12000001D8907C337B33DB
:100678007A33793300017D3FF7D71BD0170E00017D
:100688007D6512D0000E00016F6F000E706F000EB6
:10069800716F000E726F12000001D89079377A37A7
:1006A8007B377C3700017D0700017D510001D8A40C
:1006B800F3D7000178510001D8B409D000017C1F9C
:1006C8007B1F7A1F796D000E7A237B237C2379C0E8
:1006D8006FF07AC070F07BC071F07CC072F01200CD
:1006E800020EA6EC08F010C0B5F011C0B6F0040E6A
:1006F800196E000E186EB5C010F0B6C011F0000EDD
:10070800136E050E126EECEC08F010C016F011C056
:1007180017F004EC08F016C01EF017C01FF08AECA2
:1007280008F01EC0A3F01FC0A4F020C0A5F0D70E8B
:10073800256EA30E266E3D0E276EA3C022F0A4C020
:1007480023F0A5C024F0EFEC05F022C031F023C05F
:1007580032F024C033F0000E346EC80E356E420EEF
:10076800366EFCEC04F031C0A3F032C0A4F033C004
:10077800A5F0A3C06FF0A4C070F0A5C071F0D2ECD2
:1007880002F06FC08BF070C08CF08BC07EF08CC014
:100798007FF04FEC00F07EC0B0F07FC0B1F0B5C084
:1007A80010F0B6C011F0000E136E1268ECEC08F0F1
:1007B80010C0AEF011C0AFF0B5C010F0B6C011F067
:1007C800FF0E136E000E126EECEC08F011500001D3
:1007D800AC6FAD6B010E9CEC09F00001AC519CECC8
:1007E80009F00001AE519CEC09F0010E9CEC09F0F7
:1007F8001200000165BF1200000168BF120000016D
:100808006BBF12004EC01EF04FC01FF08AEC08F0FC
:100818001EC022F01FC023F020C024F0000E256E59
:100828007A0E266E440E276EEFEC05F022C06CF0AF
:1008380023C06DF024C06EF063C091F064C092F0E4
:1008480065C093F066C031F067C032F068C033F01D
:100858006CC034F06DC035F06EC036F0FCEC04F0BE
:1008680031C094F032C095F033C096F069C022F0E0
:100878006AC023F06BC024F06CC025F06DC026F070
:100888006EC027F0EFEC05F022C097F023C098F077
:1008980024C099F00001A6050001A711D8A41200F0
:1008A80091C060F092C061F093C062F0BEEC08F0B5
:1008B80060C091F061C092F062C093F094C060F0A3
:1008C80095C061F096C062F0BEEC08F060C094F08C
:1008D80061C095F062C096F097C060F098C061F072
:1008E80099C062F0BEEC08F060C097F061C098F063
:1008F80062C099F012002B502D5C2E50800A2F6E8A
:100908002C50800A2F58D8A012002BC08DF02CC074
:100918008EF02DC08FF02EC090F00001A85100017C
:100928008F5D00019051800A2F6E0001A951800A45
:100938002F58D8B005D08FC0A8F090C0A9F012D019
:1009480000018D510001A85D0001A951800A2F6E98
:1009580000018E51800A2F58D8B004D08DC0A8F05D
:100968008EC0A9F08FC01EF090C01FF08AEC08F06E
:100978001EC022F01FC023F020C024F0A0C025F024
:10098800A1C026F0A2C027F0BCEC07F0D8B00DD06B
:100998008FC01EF090C01FF08AEC08F01EC0A0F0B7
:1009A8001FC0A1F020C0A2F01200A0C022F0A1C078
:1009B80023F0A2C024F08DC01EF08EC01FF08AEC78
:1009C80008F01EC025F01FC026F020C027F0BCECA0
:1009D80007F0D8B012008DC01EF08EC01FF08AEC50
:1009E80008F01EC0A0F01FC0A1F020C0A2F01200A5
:1009F80033C037F0386A396A3234373601E3388021
:100A080037503A6E3A50D8A407D0000E316E000E17
:100A1800326E000E336E120036C037F0386A396A0B
:100A28003534373601E3388037503F6E3F50D8A40D
:100A380007D0000E316E000E326E000E336E1200BB
:100A48003F507B0F3A2633C03FF036503F1A800E96
:100A58003F16328E358EFF0E3416FF0E3516000EF9
:100A68003616000E3B6E000E3C6E000E3D6E070EF5
:100A78003E6E31A006D034503B2635503C223650CD
:100A88003D22D890333232323132D890343635362E
:100A980036363E2EEED7090E3E6E31A006D03450C3
:100AA8003B2635503C2236503D22D89033323232E4
:100AB8003132D8903D323C323B323E2EEED73BC0ED
:100AC80010F03CC011F03DC012F03AC013F03FC026
:100AD80014F017EC07F010C031F011C032F012C05A
:100AE80033F012000001B24BB32B4A4A4B2AE80EEE
:100AF8004A5C030E4B58D8A048D089A002D0010EFA
:100B080001D0000EFF0A016E89500118FE0B011872
:100B1800896E444A452A455004E10A0E445CD8A02F
:100B28000ED042504310D8A406D08C9C8C9E000E48
:100B3800436E010E426E000E456E000E446E484A2A
:100B4800492A495004E13C0E485CD8A01AD0464ACC
:100B5800472A475004E13C0E465CD8A00ED0000E50
:100B6800476E000E466E42044310D8A406D0000E0D
:100B7800436E000E426E8C8C8C8E000E496E000EF9
:100B8800486E000E4B6E000E4A6E0001B051000117
:100B9800B111D8A402D089981200404A412A4004D1
:100BA8004110D8A402D0898812000001B051401821
:100BB80007E10001B1514118D8A402D08998120068
:100BC800415004E1650E405CD8A01200000E416E51
:100BD800000E406E120024C028F0296A2A6A2334C5
:100BE800283601E3298028502F6E2F50D8A407D02B
:100BF800000E226E000E236E000E246E120027C017
:100C080028F0296A2A6A2634283601E329802850E0
:100C1800306E3050D8A407D0000E226E000E236E1E
:100C2800000E246E1200000E2C6E000E2D6E000EAB
:100C38002E6E3050890F2F5E24C030F02750301AA6
:100C4800800E3016238EFF0E2216FF0E2316000E7E
:100C58002416268EFF0E2516FF0E2616000E2716C2
:100C6800180E2B6ED8902C362D362E362550225C39
:100C78002650235827502458D8A007D02550225E44
:100C88002650235A2750245A2C80D89022362336AF
:100C980024362B2EE7D72CC010F02DC011F02EC013
:100CA80012F02FC013F030C014F017EC07F010C08A
:100CB80022F011C023F012C024F01200AAC01EF0C6
:100CC800ABC01FF08AEC08F01EC09DF01FC09EF05C
:100CD80020C09FF0A8C01EF0A9C01FF08AEC08F041
:100CE8001EC0A0F01FC0A1F020C0A2F08FC01EF04F
:100CF80090C01FF08AEC08F01EC022F01FC023F03D
:100D080020C024F0A0C025F0A1C026F0A2C027F082
:100D1800BCEC07F0D8B00DD08FC01EF090C01FF00B
:100D28008AEC08F01EC0A0F01FC0A1F020C0A2F0FD
:100D38001200A0C022F0A1C023F0A2C024F08DC0F0
:100D48001EF08EC01FF08AEC08F01EC025F01FC0F0
:100D580026F020C027F0BCEC07F0D8B012008DC0F8
:100D68001EF08EC01FF08AEC08F01EC0A0F01FC055
:100D7800A1F020C0A2F01200000161BF1200000122
:100D8800615104E100016005D8A0120060C01EF0A6
:100D980061C01FF08AEC08F01EC022F01FC023F0CB
:100DA80020C024F04EC01EF04FC01FF08AEC08F09F
:100DB8001EC025F01FC026F020C027F0EFEC05F07C
:100DC80022C062F023C063F024C064F094C031F004
:100DD80095C032F096C033F062C034F063C035F08D
:100DE80064C036F0FCEC04F031C094F032C095F0E9
:100DF80033C096F097C022F098C023F099C024F031
:100E080062C025F063C026F064C027F0EFEC05F05F
:100E180022C097F023C098F024C099F060C04EF02B
:100E280061C04FF012001350D8B405D01050111003
:100E38001210D8A40CD0000E106E000E116E000E09
:100E4800126E1200132AD890123211321032000E8C
:100E58001014156E000E1114166EFE0E1214176E75
:100E6800155016101710D8B40CD0ECD7132A010E51
:100E78001026000E1122000E1222D89012321132C2
:100E88001032000E1014156E000E1114166EFF0E9F
:100E98001214176E155016101710D8B406D0E6D7CE
:100EA8001306D89010361136123611BE03D0020E32
:100EB8001360F6D713A0119ED89013321350121254
:100EC8001450D8A4128E10C010F011C011F012C026
:100ED80012F01200EC0E106E0A0E116EA2EC09F060
:100EE800020E6BEC09F08C8E8C8C090E236E600E52
:100EF800226E52EC09F0CD0E0001636FCC0E00019A
:100F0800646F3D0E0001656F120E0001666F830E5F
:100F18000001676F3A0E0001686F000E0001696FEB
:100F2800000E00016A6F000E00016B6FFDEC03F00C
:100F38000F0E0001616FA00E606FC0EC06F0000E8E
:100F48002C6E050E2B6E000E2E6E500E2D6E7FEC45
:100F580004F0000E116E000E106EA7EC09F0000EE2
:100F68002C6E010E2B6ED6EC08F0B3EC09F01200D3
:100F780024AE16D022C028F023C029F024C02AF0BD
:100F8800281E291E2A1E282A000E29222A22000E7F
:100F98002824226E000E2920236E800E2A20246E1B
:100FA80027AE16D025C028F026C029F027C02AF081
:100FB800281E291E2A1E282A000E29222A22000E4F
:100FC8002824256E000E2920266E800E2A20276EE2
:100FD800000E221A000E231A800E241A000E251A5B
:100FE800000E261A800E271A2550225C26502358F8
:100FF80027502458D8B002D0D8901200D8801200B8
:10100800000E1B6E19AE06D0186C191ED8B0192A1E
:10101800010E1B6E17AE06D0166C171ED8B0172A15
:10102800010E1B1A000E1D6E000E1C6E18501910B2
:10103800D8B41CD0010E1A6E04D0D89018361936C0
:101048001A2A19AEFAD7D8901C361D361850165CD5
:1010580019501758D8A005D01850165E1950175AAD
:101068001C80D890193218321A2EEDD71B50D8B4DC
:1010780004D01C6C1D1ED8B01D2A1CC016F01DC043
:1010880017F01200000E8D6E000E8C6E000E896E29
:10109800000E8A6E000E8B6E070E966EEE0E926E26
:1010A8009368BF0E946E3F0E956EBC0E0F013A6F9B
:1010B8003F0E0F01396F3F0E0F013B6F070E0F01F7
:1010C8003C6F2E0E0F01386F6168F19E12006E0E94
:1010D800F66E130EF76E000EF86E0900F5CF4EF09F
:1010E8000900F5CF4FF000EE8DF02A0EEE6AE80603
:1010F800FDE100EE40F00E0EEE6AE806FDE15090CC
:101108005092000EF86E00018CEF09F0000E216E6F
:101118001FAE06D01E6C1F1ED8B01F2A010E216EEE
:101128001EC010F01FC011F0126A8E0E136E21C07F
:1011380014F017EC07F010C01EF011C01FF012C019
:1011480020F01200146E14C012F012461246C2505B
:101158001218830B1218C26EC280C282C2B2FED7A6
:10116800C450136E126AC3501224106E000E13205E
:10117800116E12000001605100016111000162113D
:10118800D8B409D0000E0001601B000E0001611BDD
:10119800800E0001621B60C060F061C061F062C037
:1011A80062F012002B042C10D8A402D0010E01D03A
:1011B800000E2D6E0001B451D8A402D0010E01D04A
:1011C800000E2D18D8B462EC06F02DC0B4F0120051
:1011D80010501202F3CF14F0F4CF15F01050130290
:1011E800F350152611501202F350152614C010F0B2
:1011F80015C011F012000001B7510001B811D8B4A0
:10120800120001D8120005000001FA6EB751FD6EF8
:10121800B851FE6EF850FF6EFA501200010EBA6E09
:10122800310EBB6E000EBC6E9E929D82700E106ECB
:10123800130E116EA2EC09F0AFEC09F01200E90EE2
:101248000001B25D030E0001B359D8A0120074EC7E
:1012580003F0000E0001B36F000EB26F12009E92F1
:101268004C4A4D2A4D5004E1140E4C5CD8A0120093
:10127800FFEC08F0000E4D6E000E4C6E1200B1EC43
:1012880009F046EC08F095EC09F012EC09F082EC54
:1012980009F05FEC09F077EC09F0120022C01EF0AB
:1012A80023C01FF08AEC08F01EC09AF01FC09BF004
:1012B80020C09CF01200010EC26E000EC16E0E0E10
:1012C800C06E000EC36E000EC46E9D8C1200116EAF
:1012D80011C010F010461046C2501018830B101899
:1012E800C26EC2801200080EB86E800EAB6E240E5D
:1012F800AC6EA00EAF6E010EB06E1200000E0F01A4
:10130800546F000E0F01556F000E0F01566F12003B
:1013180043EC09F0F28EF28C6EEC07F0ACEC09F0BD
:10132800FDD7700ED36E040ED26E000E9B6E1200A7
:10133800106E9EA8FED710C0ADFF120010C0B7F007
:1013480011C0B8F0120010C0A6F011C0A7F012002A
:1013580023EC09F01200BA841200D09E1200C28257
:0A13680012009E9C1200E803120020
:020000040020DA
:08000000FFFFFFFFFFFFFFFF00
:020000040030CA
:0E000000FF281F3CFFBF85FF0FC00FE00F4021
:00000001FF
