:040000004DEF00F0D0
:100008002C82FACF02F0FBCF03F0E9CF04F0EACF5D
:1000180005F0E1CF06F0E2CF07F0D9CF08F0DACF4C
:1000280009F0F3CF0AF0F4CF0BF0F6CF0CF0F7CFCE
:100038000DF0F8CF0EF0F5CF0FF0F2BC9DAC05D067
:100048009EAC03D0D9EC01F006D0F2BC9DA203D03F
:100058009EB231EC01F00FC0F5FF0EC0F8FF0DC0E5
:10006800F7FF0CC0F6FF0BC0F4FF0AC0F3FF09C08E
:10007800DAFF08C0D9FF07C0E2FF06C0E1FF05C0EC
:10008800EAFF04C0E9FF03C0FBFF02C0FAFF2C929D
:1000980011006EEF01F0244A252A224A232AE80E8D
:1000A800225C030E2358D8A0120089A002D0010EAA
:1000B80001D0000EFF0A016E89500118FE0B0118CD
:1000C800896E1C4A1D2A1D5004E10A0E1C5CD8A02A
:1000D8000ED01A501B10D8A406D08C9C8C9E000EF3
:1000E8001B6E010E1A6E000E1D6E000E1C6E204A4D
:1000F800212A215004E13C0E205CD8A01AD01E4AC7
:100108001F2A1F5004E13C0E1E5CD8A00ED0000E22
:100118001F6E000E1E6E1A041B10D8A406D0000E07
:100128001B6E000E1A6E8C8C8C8E000E216E000ECB
:10013800206E000E236E000E226E1200020EF5ECE9
:1001480000F010C028F011C029F028C010F029C014
:1001580011F0000E136E12680DEC01F010C018F0CB
:1001680011C019F028C010F029C011F0FF0E136E4D
:10017800000E126E0DEC01F01150166E176A010E8A
:10018800C5EC01F01650C5EC01F01850C5EC01F0B3
:10019800010EC5EC01F01200000E8D6E000E8C6E83
:1001A800000E896E000E8A6E000E8B6E070E966E1C
:1001B800FE0E926E9368BF0E946E3F0E956EBC0E47
:1001C8000F013A6F3F0E0F01396F3F0E0F013B6F62
:1001D800070E0F013C6F2E0E0F01386F6168F19EFC
:1001E8001200146E14C012F012461246C2501218B1
:1001F800830B1218C26EC280C282C2B2FED7C4502C
:10020800136E126AC3501224106E000E1320116E62
:10021800120010501202F3CF14F0F4CF15F0105062
:100228001302F350152611501202F350152614C06C
:1002380010F015C011F01200010EBA6E310EBB6E2F
:10024800000EBC6E9E929D82B60E106E030E116E4D
:10025800CBEC01F0D3EC01F012009E92264A272A3B
:10026800275004E1140E265CD8A0120041EC01F0DE
:10027800000E276E000E266E12002A502B10D8B4DE
:10028800120001D812000500FA6E2A50FD6E2B509C
:10029800FE6EF850FF6EFA501200D5EC01F0D0EC6B
:1002A80000F0BEEC01F020EC01F0ABEC01F088ECC2
:1002B80001F0A0EC01F012009E0E106E000E116EFF
:1002C800CBEC01F0020E94EC01F08C8E8C8CD7EC08
:1002D80001F0120000EE16F0140EEE6AE806FDE1D9
:1002E8002C902C92000EF86E0001B5EF01F0E90E8B
:1002F800245C030E2558D8A01200A2EC00F0000ED2
:10030800256E000E246E1200010EC26E000EC16E24
:100318000E0EC06E000EC36E000EC46E9D8C1200D1
:10032800116E11C010F010461046C2501018830B01
:100338001018C26EC2801200080EB86E800EAB6E26
:10034800240EAC6EA00EAF6E010EB06E1200000E41
:100358000F01546F000E0F01556F000E0F01566FFD
:10036800120051EC01F0F28EF28C60EC01F0D0EC4E
:1003780001F0FDD7700ED36E040ED26E000E9B6E88
:100388001200106E9EA8FED710C0ADFF120010C05C
:100398002AF011C02BF012007BEC01F01200BA8495
:1003A8001200D09E1200C28212009E9C12001200FF
:020000040020DA
:08000000FFFFFFFFFFFFFFFF00
:020000040030CA
:0E000000FF281F3CFFBF85FF0FC00FE00F4021
:00000001FF
