:0400000045EF00F0D8
:100008005082FACF02F0FBCF03F0E9CF04F0EACF39
:1000180005F0E1CF06F0E2CF07F0D9CF08F0DACF4C
:1000280009F0F3CF0AF0F4CF0BF0F6CF0CF0F7CFCE
:100038000DF0F8CF0EF0F5CF0FF0F2BC9DA203D073
:100048009EB2FAEC07F00FC0F5FF0EC0F8FF0DC026
:10005800F7FF0CC0F6FF0BC0F4FF0AC0F3FF09C09E
:10006800DAFF08C0D9FF07C0E2FF06C0E1FF05C0FC
:10007800EAFF04C0E9FF03C0FBFF02C0FAFF509289
:100088001100AAEF07F03DC06DF03EC06EF04F5072
:10009800D8A405D03FC03DF040C03EF012006DC06E
:1000A80018F06EC019F0C9EC07F018C02AF019C092
:1000B8002BF01AC02CF033EC08F02AC02DF02BC01E
:1000C8002EF02CC02FF04CC030F04DC031F04EC097
:1000D80032F08DEC01F02DC098F02EC099F02FC0B1
:1000E8009AF063C02DF064C02EF065C02FF098C060
:1000F8001EF099C01FF09AC020F046C01BF047C000
:100108001CF048C01DF013EC04F01BC030F01CC0FC
:1001180031F01DC032F08DEC01F02DC063F02EC01F
:1001280064F02FC065F041C018F042C019F0C9EC66
:1001380007F018C01CF019C01DF01AC01EF063C0EB
:100148001FF064C020F065C021F03DEC07F0D8B086
:1001580007D041C018F042C019F0C9EC07F01CD014
:1001680063C01CF064C01DF065C01EF03FC018F0ED
:1001780040C019F0C9EC07F018C01FF019C020F0F2
:100188001AC021F03DEC07F0D8B00CD03FC018F0F1
:1001980040C019F0C9EC07F018C063F019C064F04A
:1001A8001AC065F06DC018F06EC019F0C9EC07F000
:1001B80018C02DF019C02EF01AC02FF060C02AF018
:1001C80061C02BF062C02CF033EC08F02AC030F08C
:1001D8002BC031F02CC032F08DEC01F02DC092F024
:1001E8002EC093F02FC094F092C01EF093C01FF061
:1001F80094C020F049C01BF04AC01CF04BC01DF051
:1002080013EC04F01BC02AF01CC02BF01DC02CF00E
:1002180033EC08F02AC030F02BC031F02CC032F09B
:1002280098C01EF099C01FF09AC020F043C01BF080
:1002380044C01CF045C01DF013EC04F01BC02DF0A9
:100248001CC02EF01DC02FF08DEC01F02DC095F0D4
:100258002EC096F02FC097F063C030F064C031F024
:1002680065C032F095C02DF096C02EF097C02FF0E3
:100278008DEC01F02DC039F02EC03AF02FC03BF0C4
:1002880063EC02F039C06BF03AC06CF000016B51BE
:10029800415C4250800A0001906F00016C51800A55
:1002A80000019059D8B005D041C06BF042C06CF045
:1002B80012D03F5000016B5D00016C51800A0001B3
:1002C800906F4050800A00019059D8B004D03FC0C8
:1002D8006BF040C06CF06DC018F06EC019F0C9EC3E
:1002E80007F018C060F019C061F01AC062F06BC066
:1002F80090F06CC091F00001901F911F904B912BD2
:100308004150000190253D6E4250000191213E6E02
:1003180012002FC033F0346A356A2E34333601E3C5
:1003280034803350386E32C033F0346A356A313431
:10033800333601E334803350376E3850D8B40BD09D
:100348003750385CD8B00ED0385000083724336E98
:10035800180E336407D030C02DF031C02EF032C0F3
:100368002FF012003750D8B40BD03850375CD8B0C3
:100378000ED0375000083824336E180E336407D077
:100388002DC02DF02EC02EF02FC02FF01200060E1B
:10039800366E2FBE368E32BE368C2E8EFF0E2D1642
:1003A800FF0E2E16000E2F16318EFF0E3016FF0E82
:1003B8003116000E32163750385CD8B01BD0D890A2
:1003C800303631363236370638503718D8B40DD073
:1003D800360636C033F0070E3316D8B406D0EFD73A
:1003E800D8902F322E322D32382A37503818D8B4B8
:1003F8001FD0F6D73850375CD8B01AD0D8902D36E1
:100408002E362F36380638503718D8B40DD0360661
:1004180036C033F0070E3316D8B406D0EFD7D890CD
:10042800323231323032372A37503818D8A4F7D719
:1004380036AE0CD0FF0E2D1AFF0E2E1AFF0E2F1AF5
:10044800010E2D26000E2E22000E2F2236AC0CD0C7
:10045800FF0E301AFF0E311AFF0E321A010E302627
:10046800000E3122000E3222000E366E2D5030263C
:100478002E5031222F50322232AE0ED0FF0E301ABB
:10048800FF0E311AFF0E321A010E3026000E3122ED
:10049800000E3222010E366E30C010F031C011F05D
:1004A80032C012F038C013F036C014F045EC06F034
:1004B80010C02DF011C02EF012C02FF012003BC05A
:1004C80085F00001866B876B3A340001853701E3BC
:1004D80086810001855100018F6F00018F51D8A4DA
:1004E80009D0000E396E000E3A6E000E3B6E000EFB
:1004F8003C6E1200170E0001856F39C086F03AC0B5
:1005080087F03BC088F0000185290001896F05D07C
:100518000001D8908833873386330001892FF8D7B4
:100528000001865100018A6F3A8EFF0E3916FF0EC0
:100538003A16000E3B16395000018B6F3A500001F5
:100548008C6F3B5000018D6F00018E6B8E0E000189
:100558008F5F00018FAF19D000018F51800A8F0F74
:10056800D8B009D0000E396E000E3A6E000E3B6E00
:10057800000E3C6E12000001D8908E338D338C3300
:100588008B3300018F3FF7D71AD0170E00018F6504
:1005980011D0000E396E000E3A6E000E3B6E000E42
:1005A8003C6E12000001D8908B378C378D378E3710
:1005B80000018F0700018F510001D8A4F3D7000173
:1005C8008A510001D8B409D000018E1F8D1F8C1FDD
:1005D8008B6D000E8C238D238E238BC039F08CC03D
:1005E8003AF08DC03BF08EC03CF0120000017F4B0A
:1005F800802B00017B4B7C2BE80E00017B5D030EFA
:1006080000017C59D8A05BD089A002D0010E01D08E
:10061800000EFF0A016E89500118FE0B0118896E41
:100628000001754B762B0001765105E10A0E000199
:10063800755DD8A012D00001735100017411D8A4BF
:1006480007D08C9C8C9E000E0001746F010E736F96
:10065800000E0001766F000E756F0001794B7A2B42
:1006680000017A5105E13C0E0001795DD8A022D045
:100678000001774B782B0001785105E13C0E000111
:10068800775DD8A012D0000E0001786F000E776F4A
:100698000001730500017411D8A407D0000E0001F1
:1006A800746F000E736F8C8C8C8E000E00017A6F45
:1006B800000E796F000E00017C6F000E7B6F000149
:1006C8007D5100017E11D8A402D089981200000142
:1006D800714B722B0001710500017211D8A402D070
:1006E8008988120000017D510001711908E100019B
:1006F8007E5100017219D8A402D089981200000115
:10070800725105E1650E0001715DD8A01200000E5E
:100718000001726F000E716F1200000187BF120096
:1007280000018ABF120000018DBF12009FC018F09F
:10073800A0C019F0C9EC07F018C02AF019C02BF0B6
:100748001AC02CF0000E2D6E7A0E2E6E440E2F6EEF
:1007580006EC05F02AC039F02BC03AF02CC03BF06B
:1007680085C043F086C044F087C045F088C01BF0C0
:1007780089C01CF08AC01DF039C01EF03AC01FF0B5
:100788003BC020F013EC04F01BC046F01CC047F03F
:100798001DC048F08BC02AF08CC02BF08DC02CF007
:1007A80039C02DF03AC02EF03BC02FF006EC05F012
:1007B8002AC049F02BC04AF02CC04BF00001690553
:1007C80000016A11D8A4120043C02AF044C02BF0DB
:1007D80045C02CF033EC08F02AC043F02BC044F09D
:1007E8002CC045F046C02AF047C02BF048C02CF07A
:1007F80033EC08F02AC046F02BC047F02CC048F074
:1008080049C02AF04AC02BF04BC02CF033EC08F05A
:100818002AC049F02BC04AF02CC04BF012001DC072
:1008280021F0226A236A1C34213601E322802150F8
:10083800246E2450D8A407D0000E1B6E000E1C6E28
:10084800000E1D6E120020C021F0226A236A1F3498
:10085800213601E322802150296E2950D8A407D0DF
:10086800000E1B6E000E1C6E000E1D6E120029502D
:100878007B0F24261DC029F02050291A800E291626
:100888001C8E1F8EFF0E1E16FF0E1F16000E201642
:10089800000E256E000E266E000E276E070E286EBF
:1008A8001BA006D01E5025261F5026222050272286
:1008B800D8901D321C321B32D8901E361F36203677
:1008C800282EEED7090E286E1BA006D01E5025260E
:1008D8001F50262220502722D8901D321C321B324E
:1008E800D890273226322532282EEED725C010F090
:1008F80026C011F027C012F024C013F029C014F04C
:1009080045EC06F010C01BF011C01CF012C01DF021
:1009180012002550275C2850800A296E2650800A2C
:100928002958D8A0120025C03FF026C040F027C0A3
:1009380041F028C042F000016B51415C4250800AEE
:10094800296E00016C51800A2958D8B005D041C0E1
:100958006BF042C06CF010D03F5000016B5D00019D
:100968006C51800A296E4050800A2958D8B004D0AA
:100978003FC06BF040C06CF041C018F042C019F0A5
:10098800C9EC07F018C01CF019C01DF01AC01EF001
:1009980063C01FF064C020F065C021F03DEC07F093
:1009A800D8B00DD041C018F042C019F0C9EC07F01A
:1009B80018C063F019C064F01AC065F0120063C073
:1009C8001CF064C01DF065C01EF03FC018F040C0A8
:1009D80019F0C9EC07F018C01FF019C020F01AC0B0
:1009E80021F03DEC07F0D8B012003FC018F040C02D
:1009F80019F0C9EC07F018C063F019C064F01AC008
:100A080065F012002CC030F0316A326A2B3430366F
:100A180001E331803050376E3750D8A407D0000E2C
:100A28002A6E000E2B6E000E2C6E12002FC030F0B6
:100A3800316A326A2E34303601E331803050386EF4
:100A48003850D8A407D0000E2A6E000E2B6E000E68
:100A58002C6E1200000E346E000E356E000E366ECF
:100A68003850890F375E2CC038F02F50381A800E56
:100A780038162B8EFF0E2A16FF0E2B16000E2C167C
:100A88002E8EFF0E2D16FF0E2E16000E2F16180E88
:100A9800336ED8903436353636362D502A5C2E5083
:100AA8002B582F502C58D8A007D02D502A5E2E50E6
:100AB8002B5A2F502C5A3480D8902A362B362C3665
:100AC800332EE7D734C010F035C011F036C012F01D
:100AD80037C013F038C014F045EC06F010C02AF007
:100AE80011C02BF012C02CF01200C8EC08F000095D
:100AF800D8B4FBD7AEEC08F010C06FF011C070F09E
:100B0800DFEC08F0000E1E6EA00E1F6E400E206E69
:100B18006FC018F070C019F021EC08F018C01BF075
:100B280019C01CF01AC01DF013EC04F01BC02AF009
:100B38001CC02BF01DC02CF0000E2D6E800E2E6EEA
:100B4800440E2F6E06EC05F02AC066F02BC067F045
:100B58002CC068F0D70E2D6EA30E2E6E3D0E2F6E94
:100B680066C02AF067C02BF068C02CF006EC05F0D0
:100B78002AC01BF02BC01CF02CC01DF0000E1E6EEE
:100B8800C80E1F6E420E206E13EC04F01BC066F0F8
:100B98001CC067F01DC068F066C039F067C03AF045
:100BA80068C03BF063EC02F039C09BF03AC09CF09F
:100BB8009BC03DF09CC03EF047EC00F03DC07DF08E
:100BC8003EC07EF012006DC018F06EC019F0C9EC7E
:100BD80007F018C060F019C061F01AC062F06BC06D
:100BE80018F06CC019F0C9EC07F018C063F019C010
:100BF80064F01AC065F041C018F042C019F0C9ECA1
:100C080007F018C01CF019C01DF01AC01EF063C010
:100C18001FF064C020F065C021F03DEC07F0D8B0AB
:100C28000DD041C018F042C019F0C9EC07F018C047
:100C380063F019C064F01AC065F0120063C01CF0BC
:100C480064C01DF065C01EF03FC018F040C019F028
:100C5800C9EC07F018C01FF019C020F01AC021F025
:100C68003DEC07F0D8B012003FC018F040C019F0B2
:100C7800C9EC07F018C063F019C064F01AC065F039
:100C880012001350D8B405D0105011101210D8A467
:100C98000CD0000E106E000E116E000E126E1200B7
:100CA800132AD890123211321032000E1014156E19
:100CB800000E1114166EFE0E1214176E1550161033
:100CC8001710D8B40CD0ECD7132A010E1026000E3A
:100CD8001122000E1222D890123211321032000E58
:100CE8001014156E000E1114166EFF0E1214176EE6
:100CF800155016101710D8B406D0E6D71306D8909A
:100D080010361136123611BE03D0020E1360F6D714
:100D180013A0119ED8901332135012121450D8A455
:100D2800128E10C010F011C011F012C012F0120093
:100D38003ABE12003A5003E13904D8A0120039C073
:100D480018F03AC019F0C9EC07F018C02AF019C019
:100D58002BF01AC02CF09FC018F0A0C019F0C9ECF5
:100D680007F018C02DF019C02EF01AC02FF006ECAD
:100D780005F02AC03BF02BC03CF02CC03DF046C02B
:100D88001BF047C01CF048C01DF03BC01EF03CC023
:100D98001FF03DC020F013EC04F01BC046F01CC04F
:100DA80047F01DC048F049C02AF04AC02BF04BC09C
:100DB8002CF03BC02DF03CC02EF03DC02FF006ECCF
:100DC80005F02AC049F02BC04AF02CC04BF039C0BE
:100DD8009FF03AC0A0F01200F40E106E050E116ECE
:100DE800CEEC08F0020E82EC08F08C8E8C8C090E8A
:100DF8001D6E600E1C6E75EC08F0CD0E0001856F3F
:100E0800CC0E0001866F3D0E0001876F120E0001A7
:100E1800886F830E0001896F3A0E00018A6F000EF9
:100E280000018B6F000E00018C6F000E00018D6FAA
:100E380091EC03F0010E3A6EF40E396E9CEC06F05C
:100E4800000E266E050E256E000E286E500E276EBB
:100E58008DEC04F0000E116E000E106ED3EC08F04D
:100E6800000E266E010E256EE5EC07F0DFEC08F0AB
:100E780012001EAE16D01CC022F01DC023F01EC0EA
:100E880024F0221E231E241E222A000E232224229E
:100E9800000E22241C6E000E23201D6E800E2420BE
:100EA8001E6E21AE16D01FC022F020C023F021C034
:100EB80024F0221E231E241E222A000E232224226E
:100EC800000E22241F6E000E2320206E800E242088
:100ED800216E000E1C1A000E1D1A800E1E1A000E1E
:100EE8001F1A000E201A800E211A1F501C5C205059
:100EF8001D5821501E58D8B002D0D8901200D88062
:100F08001200000E8D6E000E8C6E000E896E000EA3
:100F18008A6E000E8B6E070E966EEE0E926E9368BA
:100F2800BF0E946E3F0E956EBC0E0F013A6F3F0ECA
:100F38000F01396F3F0E0F013B6F070E0F013C6F1A
:100F48002E0E0F01386F6168F19E1200C20EF66E08
:100F5800110EF76E000EF86E0900F5CF9FF009002C
:100F6800F5CFA0F000EE60F0250EEE6AE806FDE190
:100F780000EE3FF0110EEE6AE806FDE15090509247
:100F8800000EF86E0001B8EF08F0000E1B6E19AEE7
:100F980006D0186C191ED8B0192A010E1B6E18C07D
:100FA80010F019C011F0126A8E0E136E1BC014F0E7
:100FB80045EC06F010C018F011C019F012C01AF074
:100FC800120025042610D8A402D0010E01D0000E6C
:100FD800276E4F50D8A402D0010E01D0000E27185A
:100FE800D8B4E7EC05F027C04FF012009E9200013C
:100FF800814B822B0001825105E1140E0001815DB5
:10100800D8A012000EEC08F0000E0001826F000E4E
:10101800816F120000019D5100019E11D8B4120089
:1010280001D8120005000001FA6E9D51FD6E9E5117
:10103800FE6EF850FF6EFA50120018C010F019C07A
:1010480011F0126A8E0E136E000E146E45EC06F047
:1010580010C018F011C019F012C01AF012002A506E
:101068002B102C10D8B406D0000E2A1A000E2B1AFA
:10107800800E2C1A2AC02AF02BC02BF02CC02CF082
:101088001200010EBA6E310EBB6E000EBC6E9E923F
:101098009D82C40E106E110E116ECEEC08F0DBECC2
:1010A80008F01200E90E00017F5D030E000180596F
:1010B800D8A0120079EC05F0000E0001806F000E38
:1010C8007F6F1200DDEC08F085EC07F0C1EC08F04A
:1010D80045EC08F0A4EC08F099EC08F08EEC08F068
:1010E80012001CC018F01DC019F0C9EC07F018C098
:1010F8004CF019C04DF01AC04EF01200116E11C01C
:1011080010F010461046C2501018830B1018C26E0B
:10111800C2801200080EB86E800EAB6E240EAC6E44
:10112800A00EAF6E010EB06E1200010EC26E000E60
:10113800C16E8D0EC06E000EC36E000EC46E12001E
:10114800000E0F01546F000E0F01556F000E0F01B6
:10115800566F1200C450136E126AC3501224106ED8
:10116800000E1320116E120066EC08F0F28EF28C5D
:10117800F0EC06F0D8EC08F0FDD7700ED36E040E34
:10118800D26E000E9B6E1200C2B202D0010E120087
:10119800000E120010C09DF011C09EF0120010C089
:1011A80069F011C06AF0120056EC08F01200BA8417
:0E11B8001200D09E1200C2821200E803120044
:020000040020DA
:08000000FFFFFFFFFFFFFFFF00
:020000040030CA
:0E000000FF281F3CFFBF85FF0FC00FE00F4021
:00000001FF
